:04000000EEEF0BF024
:1000080000C01EF001C01DF002C01CF003C01BF0B0
:1000180004C01AF005C019F008C018F009C017F09C
:100028000AC016F00BC015F0E1CF27F0E2CF28F098
:10003800E9CF25F0EACF26F0F3CF23F0F4CF24F070
:10004800F5CF22F0F8CF1FF0F7CF20F0F6CF21F050
:1000580086EC0AF022C0F5FF1FC0F8FF20C0F7FFAA
:1000680021C0F6FF23C0F3FF24C0F4FF1EC000F038
:100078001DC001F01CC002F01BC003F01AC004F040
:1000880019C005F018C008F017C009F016C00AF02A
:1000980015C00BF025C0E9FF26C0EAFF27C0E1FF25
:0600A80028C0E2FF110078
:1000AE001E0E716E100E436E040E446E43C0E1FFC1
:1000BE0044C0E2FFE69E43C0E1FF44C0E2FFE69C7F
:1000CE00040E4324E16E000E4420E26EE68C180E00
:1000DE00366E040E376E36C0E1FF37C0E2FFE69E85
:1000EE0036C0E1FF37C0E2FFE69C040E3624E16E17
:1000FE00000E3720E26EE68C020E4324E16E000EF7
:10010E004420E26E45C0E6FF46C0E6FF010E4324E2
:10011E00E16E000E4420E26E400EE66E43C0E9FF33
:10012E0044C0EAFFEECF00F043C0E1FF44C0E2FF5F
:10013E00400E0014E66E43C0E9FF44C0EAFFEECF66
:10014E0000F0880E001243C0E1FF44C0E2FF00C081
:10015E00E6FF43C06AF044C06BF0040E4318006E15
:06016E0000C043F0120086
:100174000B6A0A6A096A00500402F4CF09F0F3CF4B
:1001840008F001500502F4CF0BF0F3CF0AF0005051
:100194000502F3500926F4500A22E86A0B220150A2
:1001A4000402F3500926F4500A22E86A0B2208C01C
:1001B40000F009C001F00AC002F00BC003F0120005
:1001C4000401286B296B47D00401308E288100017B
:1001D4006951010A02E10401288352D0308E50D0C3
:1001E4000401308E24BF16D024C403F00F0E03166E
:1001F40003C000F0000E016E003600900136410E7F
:100204000024E96E000E0120EA6EEECF04F0EECF7A
:1002140005F015D024C403F00F0E031603C000F03C
:10022400000E016E003600900136340E0024E96E93
:10023400000E0120EA6EEECF04F0EECF05F004C00C
:10024400E9FF05C0EAFFEECF01F001A403D00401E9
:10025400010E286F15D020C401F01F0E01160150A5
:10026400000AB2E020C401F01F0E01160150010A79
:10027400B5E020C401F01F0E01160150020AB0E0DF
:1002840030AE07D0280E2D6E040E2E6E3080020E76
:04029400316E1200B5
:1002980004012251010A11E120C401F01F0E0116C8
:1002A8000150000A0AE1308E2151030A04E1010ECF
:1002B8000001696F02D00001696B04012251000A34
:1002C800D8A48BD020C401F01F0E01160150020AD9
:1002D800D8A483D024C401F00F0E01160150000ADF
:1002E800D8B47BD0308E24BF16D024C403F00F0EB0
:1002F800031603C000F0000E016E003600900136B0
:10030800410E0024E96E000E0120EA6EEECF04F0E3
:10031800EECF05F015D024C403F00F0E031603C06A
:1003280000F0000E016E003600900136340E0024F5
:10033800E96E000E0120EA6EEECF04F0EECF05F074
:100348002151030A07E104C0E1FF05C0E2FF840E62
:10035800E66E43D024C400F00F0E0016700E026E35
:100368000F0E036E00500226D8B0032A02C0E9FF20
:1003780003C0EAFFFE0EEE14006EEECF01F0FF0E92
:10038800011602C0E1FF03C0E2FF00C0E6FF01C0A2
:10039800E6FF24AF11D004C0E1FF05C0E2FFE66A22
:1003A800040E0418006E00C004F004C0E1FF05C08C
:1003B800E2FF400EE66E11D004C0E1FF05C0E2FF87
:1003C800880EE66E040E0418006E00C004F004C027
:0C03D800E1FF05C0E2FFC80EE66E120057
:1003E400308E716A336A22C447F04750000A03E131
:0E03F400100E486E03D0200E486E57DE120029
:1004020004012051800AD8A473D0C00E306E65D08A
:10041200CE0E006E1A0E016E000E026E00C02DF09E
:1004220001C02EF002C02FF0120E316E000E326E9D
:100432005FD0030E006E000E016E22C404F0000EA7
:10044200056E97DE490E0024E96E000E0120EA6E69
:10045200EECF2DF0EECF2EF0EECF2FF0020E2D24A8
:10046200F66E000E2E20F76E000E2F20F86E090099
:10047200F5CF00F00900F5CF01F000C031F001C066
:1004820032F036D0225100016C5D23E3030E006E80
:10049200000E016E22C404F0000E056E6ADE510EDB
:1004A2000024E96E000E0120EA6EEECF2DF0EECFB1
:1004B2002EF0EECF2FF02DC0F6FF2EC0F7FF2FC08B
:1004C200F8FF0900F5CF00F000C031F0000E326EE7
:1004D20001D0306A0DD0306A0BD004012351010AD9
:1004E20097E02351020AA5E02351030ACBE0F3D798
:0204F2001200F6
:1004F40020C401F01F0E01160150010A01E08DD045
:1005040004012451000A01E088D02151060A3FE188
:1005140034D04750010A17E1710E006E1A0E016EB5
:10052400000E026E120E0026000E0122022200C0EE
:100534002DF001C02EF002C02FF0090E316E000E16
:10054400326EC00E306E23D04750010A12E1020E03
:10055400006E1A0E016E000E026E00C02DF001C076
:100564002EF002C02FF06F0E316E000E326EC00EF0
:10057400306E0DD0800E306E0AD004012351210A52
:10058400C8E02351220AE0E02351230AF3E020C407
:1005940001F0600E0116050E006E005004E00132F9
:1005A400019EFF0FFBD70150010A01E036D022D093
:1005B40034D033D05E0E2D6E000E2E6E010E316ED1
:1005C400000E326EC10E306E28D0800E306E23C401
:1005D4005EF023D05A0E2D6E000E2E6E010E316E7B
:1005E400000E326E810E306E18D0800E306E22C432
:1005F4005AF013D004012151010ADAE02151090A09
:10060400D8E02151020AD6E021510A0ADEE0215144
:0C061400030AE0E021510B0AE8E01200AC
:10062000000E325C02E1080E315C11E231C003F0D1
:1006300032C004F000016051000A03E1010E606F56
:1006400005D06051010A02E1020E606F04D0080E6D
:10065000036E000E046E000134C0E1FF35C0E2FFFE
:10066000E69234C0E1FF35C0E2FFE69034C0E9FF16
:1006700035C0EAFFEECF00F034C0E1FF35C0E2FF45
:1006800004500010E66E010E3424E16E000E352099
:10069000E26E03C0E6FF0350315C006E0450325836
:1006A000016E00C031F001C032F0280E6D6F040EF3
:1006B0006E6F30B02FD0035004102BE02DC0F6FF2A
:1006C0002EC0F7FF2FC0F8FF0900F5CF00F06DC076
:1006D000E1FF6EC0E2FF00C0E6FF6D4B6E2B010E26
:1006E0002D24006E000E2E20016E000E2F20026EB3
:1006F00000C02DF001C02EF002C02FF0010E035CEF
:10070000006E000E0458016E00C003F001C004F03A
:10071000D2D724D00350041021E02DC0E9FF2EC011
:10072000EAFF6DC0E1FF6EC0E2FFEECFE6FF6D4B6A
:100730006E2B010E2D24006E000E2E20016E00C0C7
:100740002DF001C02EF0010E035C006E000E045867
:0E075000016E00C003F001C004F0DCD71200FF
:10075E0020C401F0600E0116050E006E005004E07C
:10076E000132019EFF0FFBD70150000A01E059D064
:10077E0035D0308E080E486E54D03CDE52D02BDE73
:10078E0050D0470E2D6E000E2E6E3080010E316E43
:10079E00308E47D010DD45D078DD43D0330E006E5D
:1007AE00000E016E040124510026D8B0012A00C0AB
:1007BE002DF001C02EF03080010E316E308E31D012
:1007CE00308E330EE16E000EE26E2451E126D8B06B
:1007DE00E22A22C4E6FF25D024D023D004012151E1
:1007EE00050AC7E02151060AC8E02151090AC7E0EF
:1007FE002151080AC6E02151000ACCE02151010A1C
:10080E00CBE02151030AC8E021510A0AC7E0215169
:10081E000B0AD6E02151070ADFE021510C0ADDE078
:04082E00DCD7120001
:10083200010E00016F25E96E000E7021EA6EEECF07
:1008420000F000C002F0000E3C5C02E102503B5C92
:1008520003E23BC002F00AD002503B5C006E000E85
:100862003C58016E00C03BF001C03CF0036A0250EC
:10087200035C1CE2280EE96E040EEA6E0350E926C0
:10088200D8B0EA2AEECF00F038C0E1FF39C0E2FF6B
:1008920000C0E6FF010E3824006E000E3920016E02
:1008A20000C038F001C039F0032AE1D7000E006E13
:1008B2003C50005C02E13B50000828E2010E722528
:1008C200E16E000E7321E26E080EE66E020E7225D4
:1008D200E16E000E7321E26E280EE66E040EE66EE5
:1008E2006FC0E9FF70C0EAFFEECF00F000BC07D096
:1008F20072C0E1FF73C0E2FFC80EE66E06D072C09E
:10090200E1FF73C0E2FF880EE66E19D0010E722578
:10091200E16E000E7321E26E080EE66E020E722583
:10092200E16E000E7321E26E200EE66E040EE66E9C
:1009320072C0E1FF73C0E2FF840EE66E3A9E1200BF
:0E094200160E6F6E9F0E6B6E3B0E696E1200EE
:10095000506A34C0E1FF35C0E2FFE66A040E341885
:10096000E16E35C0E2FF000EE21AE66A3ABE3A9E38
:02097000120073
:080972005D5201E0BEDD120040
:10097A006D9830BE4BD03AAE29D0020E506E010EA1
:10098A003424E16E000E3520E26EE66A34C0E1FFDF
:10099A0035C0E2FFC80EE66E010E00017225E16E57
:1009AA00000E7321E26E080EE66E020E7225E16EEB
:1009BA00000E7321E26E280EE66E040EE66E72C019
:1009CA00E1FF73C0E2FFC80EE66E1FD00001010E00
:1009DA007225E16E000E7321E26E080EE66E020EBB
:1009EA007225E16E000E7321E26E200EE66E040E91
:1009FA00E66E72C0E1FF73C0E2FF8C0EE66E34C091
:100A0A00E1FF35C0E2FF840EE66E7FD03ABE7DD0AC
:100A1A00040120AF52D03250275D02E13150265DE9
:100A2A0004E226C431F027C432F0F5DD010E506E1F
:100A3A00010E00017225E16E000E7321E26E080EAE
:100A4A00E66E020E7225E16E000E7321E26E200E32
:100A5A00E66E040EE66E72C0E1FF73C0E2FF800E1E
:100A6A00E66E716B010E6F25E16E000E7021E26E6B
:100A7A00080EE66E020E6F25E16E000E7021E26E20
:100A8A00200EE66E040EE66E6FC0E1FF70C0E2FF54
:100A9A00840EE66E010E716F020E3424E16E000EB2
:100AAA003520E26E280EE66E040EE66E34C0E1FFD3
:100ABA0035C0E2FFC80EE66E28D00001020E506E65
:100ACA00010E3424E16E000E3520E26EE66A34C06F
:100ADA00E1FF35C0E2FFC80EE66E010E7225E16E37
:100AEA00000E7321E26E080EE66E020E7225E16EAA
:100AFA00000E7321E26E280EE66E040EE66E72C0D8
:0C0B0A00E1FF73C0E2FFC80EE66E1200AF
:100B1600710E496E1A0E4A6E000E4B6EE40E516E41
:100B26001A0E526E000E536EB60E546E1A0E556E97
:100B3600000E566E9A0E576E1A0E586E000E596EAD
:020B460012009B
:0A0B48006984EF0E68166D8212003A
:040B5200A19A120052
:100B56006D92699468A403D0FB0E6816FBD7120049
:100B6600040E3418006E00C034F04850080A0AE13A
:100B760022C46EFF6E50000803E2100E486E02D0CB
:100B8600040E486E5050010A3BE1020E3424E16E19
:100B9600000E3520E26E280EE66E040EE66E3DDD92
:100BA60000016051020A07E134C0E1FF35C0E2FFEF
:100BB600840EE66E24D0040E3418006E00C034F0A5
:100BC60034C0E9FF35C0EAFFEECF00F000BC0CD020
:100BD600040E3418006E00C034F034C0E1FF35C096
:100BE600E2FFC80EE66E0BD0040E3418006E00C08D
:100BF60034F034C0E1FF35C0E2FF880EE66E01D066
:040C0600A4DE120056
:100C0A0034C0E9FF35C0EAFFEECF00F000AE05D0F0
:100C1A0034C0E1FF35C0E2FFE66A0001606B506A4A
:0E0C2A00316A326A306A96DD9FDEA2DE120069
:100C380070A01CD06FC0E9FF70C0EAFFEECF01F0D2
:100C48000150800A12E134C0E9FF35C0EAFFEECF57
:100C580001F0000E000A02E1840E011806E16FC0DF
:100C6800E1FF70C0E2FF8C0EE66E7090DF0E681632
:020C7800120068
:100C7A005050020A02E1D8DD1FD065DE0001715131
:100C8A00000A19E1010E7225E16E000E7321E26E6F
:100C9A00080EE66E020E7225E16E000E7321E26EF8
:100CAA00200EE66E040EE66E72C0E1FF73C0E2FF2C
:0A0CBA008C0EE66E01D0716B120083
:100CC40028DF00016A6B6B6B5B6A5C6A6A6A686A3C
:100CD40036DE6D8C6E6A716A6D9C616B626B000EA0
:100CE400625D02E1080E615D17E261C000F062C05E
:100CF40001F0003600900136003600900136000EF7
:100D04000024E16E040E0120E26EE66AE66AE66AF9
:100D1400E66A614B622BE3D7160E706E68A603D0A9
:100D2400F70E6816FBD7306A3A6A3B6A3C6A6D98DC
:0E0D3400080E346E040E356E476A486A1200CF
:100D4200CE0E006E1A0E016E000E026E0E0E002402
:100D5200F66E000E0120F76E000E0220F86E0900FA
:100D6200F5CF03F003C004F00F0E0024F66E000E60
:100D72000120F76E000E0220F86E0900F5CF01F097
:100D82000150035C12E2CE0E006E1A0E016E000ECE
:100D9200026E0F0E0024F66E000E0120F76E000E9A
:100DA2000220F86E0900F5CF04F0CE0E006E1A0E86
:100DB200016E000E026E100E0024F66E000E01206F
:100DC200F76E000E0220F86E0900F5CF01F0015017
:100DD200045C12E2CE0E006E1A0E016E000E026E5E
:100DE200100E0024F66E000E0120F76E000E022097
:0E0DF200F86E0900F5CF04F004C000F0120006
:100E00000134083609360450085E0550D8A0053C68
:100E1000095E003601360F0E0C6E013408360936B5
:100E2000045000A006D0085E0550D8A0053C095E1D
:100E300005D008260550D8B0053C092600360136F5
:100E40000C2EEBD700B006D0045008260550D8B0C1
:080E5000053C09260000120018
:0A0E5800D08EA28AA08AF28E12004A
:100E62004850000A09E16D6A696A6ADD6DB602D00E
:100E72006D86FCD7010E486E4850010A08E16DBA32
:100E820006D0686A696A69806988020E486E68A439
:100E920005D069A403D0FB0E68165CDE6DA202D0F9
:100EA20057DED5D068A018D069A016D00ADF040E8C
:100EB200486E200E0401026F040E036F080E016FCC
:100EC200000E0015006E00C000F48C0E0011006EC2
:100ED20000C000F4FE0E681668A805D069A803D009
:100EE20032DEEF0E681668AC04D069AC02D0BF0ED9
:100EF200681668AA03D069AA01D09DDE68A202D052
:100F020069B26A6A040E485C02E222DEA0D069A6D7
:100F12009DD00001806B040E805DD8B097D068A68A
:100F220091D06CCF5FF0F70E6816780E5F14016EE9
:100F32000150000AD8A485D0FD0E5F14016E026A2A
:100F4200FF0E0216000E021802E1000E01186BE1FC
:100F52007E0E5F14016E01C003F00332039E03C0D4
:100F620000F0000E016E003600900136003600904F
:100F72000136000E0024026E040E0120036E02C030
:100F82006FF003C070F002C072F003C073F0040E81
:100F92007219006E00C072F002C0E9FF03C0EAFFDE
:100FA200EECF00F000C001F03C0E01160132019EAE
:100FB2000132019E01500D0A34E1020E6F25E96EE5
:100FC200000E7021EA6EEECF01F0EECF02F0025079
:100FD200040A02E1280E011822E1020E6F25E16ED9
:100FE200000E7021E26E200EE66E040EE66E7F6B3E
:100FF200080E7F5D14E2200EE16E040EE26E7F5158
:10100200E126D8B0E22A280EE96E040EEA6E7F517C
:10101200E926D8B0EA2AEECFE6FF7F2BE9D7F4DD46
:1010220001D02ADE0DD0FD0E5F14016E026AFF0EA2
:101032000216000E021802E1040E011801E192DD0F
:1010420000D001D003D00001802B65D781DD1200D2
:1010520000018051000A12E07FC000F0000E016E14
:10106200003600900136340E0024E96E000E012095
:10107200EA6EEECF04F0EECF05F011D07FC000F0A3
:10108200000E016E003600900136410E0024E96E1A
:10109200000E0120EA6EEECF04F0EECF05F0020E54
:1010A2000424E16E000E0520E26E81C0E6FF82C0DC
:1010B200E6FF010E0424E16E000E0520E26E83C0FD
:1010C200E6FF04C0E9FF05C0EAFFEECF00F004C06E
:1010D200E1FF05C0E2FF400E0014E66E04C0E9FF26
:1010E20005C0EAFFEECF00F0880E001204C0E1FF57
:1010F20005C0E2FF00C0E6FF8051000A1BE07FC08E
:1011020000F0000E016E003600900136340E00240D
:10111200026E000E0120036E02C0E9FF03C0EAFF67
:10112200040EEE18006E02C0E1FF03C0E2FF00C031
:10113200E6FF1AD07FC000F0000E016E003600906C
:101142000136410E0024026E000E0120036E02C021
:10115200E9FF03C0EAFF040EEE18006E02C0E1FFD1
:1011620003C0E2FF00C0E6FF04C000F005C001F0CA
:02117200120069
:101174000001826B836B846B020E7F25F66E000E7A
:101184008021F76E000E8121F86E0900F5CF05F07D
:10119400030E7F25F66E000E8021F76E000E81216E
:1011A400F86E0900F5CF00F000C003F0000E046EE5
:1011B40003C001F0006A05500024066E000E0120F1
:1011C400076E7FC008F080C009F081C00AF0010EEC
:1011D4000824F66E000E0920F76E000E0A20F86E41
:1011E4000900F5CF01F00150020A1BE1060E0824A4
:1011F400F66E000E0920F76E000E0A20F86E090044
:10120400F5CF01F00150825D0CE2060E0824F66E63
:10121400000E0920F76E000E0A20F86E0900F5CFC3
:1012240082F0010E0824F66E000E0920F76E000EFF
:101234000A20F86E0900F5CF01F00150040A1BE101
:10124400080E0824F66E000E0920F76E000E0A2020
:10125400F86E0900F5CF01F00150825D0CE2080E32
:101264000824F66E000E0920F76E000E0A20F86EB0
:101274000900F5CF82F008C0F6FF09C0F7FF0AC0E5
:10128400F8FF0900F5CF00F000508325016E000E31
:101294008421026E01C083F002C084F00750025C16
:1012A40002E10650015C01E30FD008C0F6FF09C05B
:1012B400F7FF0AC0F8FF0900F5CF00F00050082638
:0E12C400000E09220A2283D782C000F0120019
:1012D200000E0001801902E1000E7F1902E1016A8D
:1012E2000AD07FC0E9FF80C0EAFFEECF00F0000E17
:0C12F20000BE010E016E01C000F01200F1
:1012FE004850000A0BE16D6A696AA1EC04F0A5DDA5
:0E130E006DB602D06D86FCD7010E486E12003F
:10131C00200E485C03E36DB201D002D0006A4FD0BE
:10132C005BC07FF05CC080F0CEDF005247E17CC038
:10133C007FF0010E806F79C081F07AC082F07BC0A3
:10134C0083F081DE00C05BF001C05CF0636B646B0A
:10135C00656B666B5BC07FF05CC080F0B4DF0052E5
:10136C0017E0200E485C03E36DB201D002D0006A96
:10137C0026D0010E016E0150000A01E16CDD000166
:10138C00635164116511661102E0006A18D0E2D74E
:10139C005BC07DF05CC07EF0000E5C1802E1000EBC
:1013AC005B180AE00001010E7D25E96E000E7E211E
:1013BC00EA6EEECF00F003D0006A01D0006A120092
:0C13CC003A0E0D6E0D2EFED70000120030
:1013D8000450000A08E10550000A05E1FF0E006EFE
:1013E8007F0E016E57D00D6A096A086A0150001015
:1013F800D8B4000C015005180A6E0ABE0D1E0B6AFF
:1014080005AE05D0041E051E042AD8B4052A01AE6F
:1014180005D0001E011E002AD8B4012A015005106B
:101428000A6E0ABE10D0E8DC0BB020D00DAE000C5E
:10143800001E011E002AD8B4012A081E091E082A07
:10144800D8B4092A000C05AE0DD001BE07D0015052
:10145800096E0050086E016A006AE8D7016A006ADE
:10146800002A000C011E001E0B2ADDD7082AD8B45A
:10147800092A0450085CD8A4D9D70550095CD8A417
:10148800D5D7096A086A002AD8B4012A01AECED78E
:061498000000FF0C120031
:10149E0051DC00C079F0710E00017F6F1A0E806F63
:1014AE00000E816F60DE00C07AF07951005C03E2BD
:0C14BE0079C000F002D07AC000F01200EB
:1014CA00E9DF00C06CF0010E5D6E74C045F075C0B6
:1014DA0046F076C067F077C068F062EC06F0010E5D
:0C14EA00016E0150010A01E105DF120053
:1014F60074C079F075C07AF076C07BF0010E0001F9
:061506007C6F09DF1200FA
:10150C004850010A07E16DBA05D0686A698069889C
:10151C00020E486E68A406D069A404D0FB0E6816AF
:10152C00ABEC05F06DA203D0A9EC05F0DDD068A002
:10153C0019D069A017D062EC06F0040E486E200E8C
:10154C000401026F040E036F080E016F000E0015EC
:10155C00006E00C000F48C0E0011006E00C000F490
:10156C00FE0E681668A806D069A804D0A4EC05F095
:10157C00EF0E681668AC04D069AC02D0BF0E6816CA
:10158C0068AA04D069AA02D01CEC06F068A202D0AA
:10159C0069B26A6A040E485C03E2A9EC05F0A4D0B7
:1015AC0069A6A0D00001866B040E865DD8B09AD0D7
:1015BC0068A694D06CCF5FF0F70E6816780E5F14A7
:1015CC00016E0150000AD8A488D0FD0E5F14016E84
:1015DC00026AFF0E0216000E021802E1000E01183C
:1015EC006DE17E0E5F14016E01C003F00332039EA9
:1015FC0003C000F0000E016E00360090013600367C
:10160C0000900136000E0024026E040E0120036EC1
:10161C0002C06FF003C070F002C072F003C073F030
:10162C00040E7219006E00C072F002C0E9FF03C014
:10163C00EAFFEECF00F000C001F03C0E01160132C3
:10164C00019E0132019E01500D0A35E1020E6F25FB
:10165C00E96E000E7021EA6EEECF01F0EECF02F0D3
:10166C000250040A02E1280E011822E1020E6F2535
:10167C00E16E000E7021E26E200EE66E040EE66E38
:10168C00856B080E855D14E2200EE16E040EE26E91
:10169C008551E126D8B0E22A280EE96E040EEA6ED6
:1016AC008551E926D8B0EA2AEECFE6FF852BE9D79B
:1016BC0005EC06F002D03DEC06F00ED0FD0E5F14EA
:1016CC00016E026AFF0E0216000E021802E1040EF1
:1016DC00011802E1B3EC05F000D001D003D00001F9
:0A16EC00862B62D7A9EC05F012006E
:1016F6000900F5CFE6FF0006FBE10106F9E112005D
:1017060000017551745D046E000E74BFFF0E056E08
:10171600000E75BFFF0E055A7751785D006E016A9F
:10172600000E015ABAEC00F07551765D046E000E9B
:1017360076BFFF0E056E000E75BFFF0E055A49DE19
:10174600000177510026000E0122FE0E0016000E43
:041756000116120066
:10175A00838E9C0E0C6ED70E0D6E0D2EFED70C2EA0
:04176A00FCD7120096
:10176E00C26A2C1C006E0050C116070EC012C08E2D
:10177E0074C000F000360090003600900050C21287
:10178E00C2801DDEC282C2A201D0FDD7C4CF01F03D
:0E179E00006AC3500012000E0112C290120029
:1017AC00FF0E4C6EFF0E4D6EFF0E4E6EFF0E4F6E0B
:1017BC00C26A2C1C006E0050C1162C50000174150E
:1017CC00006E0050C112070EC012C08EC2801200F3
:1017DC0074EC0DF00C0EC16E3F0E926E936A070EF8
:1017EC00946E7F0E956E070E966E806A816A826A81
:1017FC00836A846A000E0001746F050E756F400ECB
:10180C00766F050E776F5BDEA2DF0001746BC8DFAD
:10181C007F0E0501406F416B7F0E426F436B7F0E55
:10182C00446F456B0F0E466F476B486B0001746B32
:10183C0098DF00C02AF0150E0C6EC60E0D6E0D2E24
:10184C00FED70C2EFCD70000010E0001746F89DF4F
:10185C0000C02BF0150E0C6EC60E0D6E0D2EFED7A5
:10186C000C2EFCD70000020E0001746F7ADF00C052
:10187C0029F0150E0C6EC60E0D6E0D2EFED70C2E0D
:10188C00FCD700002AC074F00001756BFF0E766F58
:10189C00776BFF0E786F31DF00C040F500C081FF21
:1018AC002BC074F0756BFF0E766F776BFF0E786F35
:1018BC0024DF00C042F529C074F0756BFF0E766F03
:1018CC00776BFF0E786F19DF00C044F580A602D04D
:1018DC000501466B80A803D00501040E466F80AA53
:1018EC0003D00501080E466F84A003D005010C0E31
:1018FC00466F80A805D080A603D00501020E466F66
:10190C0080A805D080AA03D00501060E466F80AAD8
:10191C0005D084A003D005010A0E466F84A005D023
:10192C0080A603D005010E0E466F81A002D00501E2
:10193C00468981A202D00501468B81A402D0050103
:10194C00468D81A602D00501468F81A802D00501E3
:10195C00478181AA02D00501478381AC02D00501E1
:10196C00478581AE02D00501478782A002D00501D0
:10197C00478982A202D00501478B82A402D00501BF
:10198C00478D83A002D00501478F83A202D00501A9
:10199C00488183A402D00501488383A602D00501A7
:1019AC00488583A802D00501488783AA02D0050187
:1019BC00488983AC02D00501488B84A202D0050172
:1019CC00488D84A402D00501488F400E0001746F2D
:1019DC00050E756F090E766F88DD005201E1F5D7A3
:1019EC00680E0C6EE40E0D6E0D2EFED70C2EFCD771
:0619FC0000000ED7FFD72A
:101AE80010EE29F0040E006E010E016EE00EF66E87
:0E1AF8001A0EF76E000EF86E7BEC0BF012006B
:101A0200050115000904A101050209C8150026FFF8
:101A12000075109501810209BB150026FF00950192
:101A2200810209C5150026FF009501810205010901
:101A3200391500250F3500460E0165147504950110
:101A42008102050919012912150025017501951256
:101A5200550065008102050209C6150025017501C0
:0F1A62009501810209CF1500250195018102C070
:101A7100090229000101008032090400000203006B
:101A81000000092101010001226F000705810340C7
:091A9100000107050103400001FA
:101A9A00200355005300420020004800490044003A
:0C1AAA0020004D006F0075007300650007
:101AB600160345006D0069006C00200045006E00AD
:081AC600630068006500760072
:101ACE0012010002000000080414060201000102C7
:021ADE00000105
:011AE0000005
:011AE1000004
:011AE2000003
:011AE30030D2
:041AE40004030904EA
:020000040030CA
:0E000000210C391EFF0381FF0FC00FE00F40DF
:00000001FF
